:020000040800F2
:1000000000500020310D0008D50C0008DB0C000862
:10001000E10C0008E70C0008ED0C000800000000EF
:10002000000000000000000000000000F30C0008C9
:10003000FF0C0008000000000B0D0008170D000861
:10004000790D0008790D0008790D0008790D000878
:10005000790D0008790D0008790D0008790D000868
:10006000790D0008790D0008790D0008790D000858
:10007000790D0008790D0008790D0008790D000848
:10008000790D0008790D0008790D0008790D000838
:10009000790D0008790D0008790D0008790D000828
:1000A000790D0008790D0008790D0008790D000818
:1000B000790D0008790D0008790D0008790D000808
:1000C000790D0008790D0008790D0008790D0008F8
:1000D000790D0008790D0008790D0008790D0008E8
:1000E000790D0008790D0008790D00080000000066
:1000F0000000000000000000000000000000000000
:0C01000000000000000000005FF808F1A3
:10010C0010B5054C237833B9044B13B10448AFF345
:10011C0000800123237010BD0C00002000000000A3
:10012C009423000808B5034B1BB103490348AFF3F4
:10013C00008008BD0000000010000020942300087F
:10014C004FF0FF0C1CEAD0521EBF1CEAD15392EAAE
:10015C000C0F93EA0C0F6FD01A4480EA010C40028A
:10016C0018BF5FEA41211ED04FF0006343EA5010E4
:10017C0043EA5111A0FB01310CF00040B1F5000F26
:10018C003EBF490041EAD3715B0040EA010062F1D5
:10019C007F02FD2A1DD8B3F1004F40EBC25008BFBF
:1001AC0020F00100704790F0000F0CF0004C08BFDD
:1001BC0049024CEA502040EA51207F3AC2BFD2F1AA
:1001CC00FF0340EAC250704740F400004FF00003B8
:1001DC00013A5DDC12F1190FDCBF00F000407047F2
:1001EC00C2F10002410021FA02F1C2F1200200FA30
:1001FC0002FC5FEA310040F1000053EA4C0308BFF7
:10020C0020EADC70704792F0000F00F0004C02BF47
:10021C00400010F4000F013AF9D040EA0C0093F0C2
:10022C00000F01F0004C02BF490011F4000F013B1C
:10023C00F9D041EA0C018FE70CEAD15392EA0C0F8A
:10024C0018BF93EA0C0F0AD030F0004C18BF31F0F5
:10025C00004CD8D180EA010000F00040704790F0CB
:10026C00000F17BF90F0004F084691F0000F91F06F
:10027C00004F14D092EA0C0F01D142020FD193EA35
:10028C000C0F03D14B0218BF084608D180EA0100BD
:10029C0000F0004040F0FE4040F40000704740F099
:1002AC00FE4040F44000704780F0004002E000BF88
:1002BC0081F0004142001FBF5FEA410392EA030F45
:1002CC007FEA226C7FEA236C6AD04FEA1262D2EB8F
:1002DC001363C1BFD218414048404140B8BF5B4294
:1002EC00192B88BF704710F0004F40F4000020F02D
:1002FC007F4018BF404211F0004F41F4000121F043
:10030C007F4118BF494292EA030F3FD0A2F101028C
:10031C0041FA03FC10EB0C00C3F1200301FA03F1CA
:10032C0000F0004302D5494260EB4000B0F5000FED
:10033C0013D3B0F1807F06D340084FEA310102F1AC
:10034C000102FE2A51D2B1F1004F40EBC25008BF5E
:10035C0020F0010040EA03007047490040EB000028
:10036C00013A28BFB0F5000FEDD2B0FA80FCACF129
:10037C00080CB2EB0C0200FA0CF0AABF00EBC25056
:10038C0052421843BCBFD0401843704792F0000F44
:10039C0081F4000106BF80F400000132013BB5E797
:1003AC004FEA41037FEA226C18BF7FEA236C21D00D
:1003BC0092EA030F04D092F0000F08BF0846704772
:1003CC0090EA010F1CBF0020704712F07F4F04D140
:1003DC00400028BF40F00040704712F100723CBF53
:1003EC0000F50000704700F0004343F0FE4040F47D
:1003FC00000070477FEA226216BF08467FEA23633B
:10040C000146420206BF5FEA412390EA010F40F425
:10041C00800070474FF0000304E000BF10F0004371
:10042C0048BF40425FEA000C08BF704743F0964358
:10043C0001464FF000001CE050EA010208BF704773
:10044C004FF000030AE000BF50EA010208BF7047FA
:10045C0011F0004302D5404261EB41015FEA010C0F
:10046C0002BF84460146002043F0B64308BFA3F107
:10047C008053A3F50003BCFA8CF2083AA3EBC253E9
:10048C0010DB01FA02FC634400FA02FCC2F1200208
:10049C00BCF1004F20FA02F243EB020008BF20F03F
:1004AC000100704702F1200201FA02FCC2F12002A5
:1004BC0050EA4C0021FA02F243EB020008BF20EA9A
:1004CC00DC7070474FEA4002B2F1FE4F0FD34FF091
:1004DC009E03B3EB12620DD94FEA002343F00043A5
:1004EC0010F0004F23FA02F018BF404270474FF053
:1004FC000000704712F1610F01D1420205D110F0DA
:10050C00004008BF6FF0004070474FF0000070478C
:10051C0080B586B000AF78600B467B8007F108038E
:10052C0000221A605A609A60DA607B88BB600123F3
:10053C00FB6002237B6107F108031946786800F021
:10054C00A7FE00BF1837BD4680BD80B586B000AF92
:10055C0078600B467B8007F1080300221A605A6012
:10056C009A60DA607B88BB600023FB6000233B61F0
:10057C0007F108031946786800F08AFE00BF1837A7
:10058C00BD4680BD80B500AF04210C48FFF7C0FF0D
:10059C0000220421094801F016F8122000F0E8FAB4
:1005AC0001220421054801F00EF81E2000F0C8FAC3
:1005BC0004210248FFF7C9FF00BF80BD00080140BD
:1005CC0080B582B000AF0023FB71322000F0B8FA86
:1005DC000421114800F0E0FF0346002B0ED15020FF
:1005EC0000F0AEFA04210C4800F0D6FF0346002BB5
:1005FC0002D00123FB7101E0FF23FB7100BF04213A
:10060C00054800F0C9FF0346002BF8D1FB791846CA
:10061C000837BD4680BD00BF0008014080B582B0E0
:10062C0000AF0023BB7127E000BF0421164800F087
:10063C00B3FF0346002BF8D0322000F081FA0421DE
:10064C00114800F0A9FF0346002B03D1FB795B0096
:10065C00FB7106E0FB795B005BB243F001035BB21C
:10066C00FB7100BF0421084800F096FF0346002BE5
:10067C00F8D1BB790133BB71BB79072BD4D9FB798A
:10068C0018460837BD4680BD0008014080B582B0D1
:10069C0000AF7860FFF776FFFFF792FF03461A462C
:1006AC00224B1A70FFF7BAFF03461A46204B1A70FA
:1006BC00FFF7B4FF03461A461E4B1A70FFF7AEFF46
:1006CC0003461A461C4B1A70FFF7A8FF03461A463E
:1006DC001A4B1A70FFF7A2FF03469AB2184B1A80F6
:1006EC00174B1B881946124B1B781A46114B1B785B
:1006FC001344114A12781344104A12781344994245
:10070C000FD10D4B1B781846FFF784FE02467B6811
:10071C001A60074B1B781846FFF77CFE02467B6875
:10072C005A6000BF0837BD4680BD00BF2E000020B8
:10073C0028000020290000202A0000202B00002087
:10074C002C00002080B500AF00F05CFC00F0EEF84F
:10075C0000F0C8F900F024FA00F02AF900F074F95E
:10076C00644801F081FB644801F07EFB00F0C2FBA1
:10077C000021052000F0FAFB604800F02DFC01215F
:10078C00022000F0F3FB5E4800F026FC4FF47A7078
:10079C0000F0EEF900F0A4FB5A48FFF777FF594B35
:1007AC005B6859491846FFF7CBFC03461846FFF720
:1007BC0089FE0346554A1360524B1B685249184632
:1007CC00FFF7BEFC03461846FFF77CFE0346504A73
:1007DC0013600021002000F0C9FB4E4800F0FCFB28
:1007EC004A4B1B684C4A82FB03125211DB17D31A7B
:1007FC00DBB23033DBB2184600F0D7FB434B1A6840
:10080C00454B83FB02135911D317CB1A642101FBFF
:10081C0003F3D31A414A82FB03129210DB17D31A4B
:10082C00DBB23033DBB2184600F0BFFB2E2000F0F9
:10083C00BCFB364B1A68394B83FB02139910D31748
:10084C00C91A0B469B000B445B00D11ACBB2303358
:10085C00DBB2184600F0A9FB314800F0BDFB0121CA
:10086C00002000F083FB2F4800F0B6FB284B1B68E0
:10087C00294A82FB03125211DB17D31ADBB2303335
:10088C00DBB2184600F091FB214B1A68224B83FB1C
:10089C0002135911D317CB1A642101FB03F3D31A9A
:1008AC001E4A82FB03129210DB17D31ADBB23033D1
:1008BC00DBB2184600F079FB2E2000F076FB144BCF
:1008CC001A68164B83FB02139910D317C91A0B46DF
:1008DC009B000B445B00D11ACBB23033DBB2184611
:1008EC0000F063FB104800F077FB4FF4FA7000F057
:1008FC003FF951E73000002078000020AC230008BD
:10090C00B4230008C800002000002041C0000020D3
:10091C00C4000020C42300081F85EB51676666667F
:10092C00CC230008D0230008D823000880B590B051
:10093C0000AF07F1180328220021184601F01CFD16
:10094C003B1D00221A605A609A60DA601A61022319
:10095C00BB610123BB621023FB6202237B63002378
:10096C00BB634FF40023FB6307F11803184600F038
:10097C0043FE0346002B01D000F03EF90F237B60B1
:10098C000223BB600023FB604FF480633B610023B8
:10099C007B613B1D0021184601F0B0F80346002B8B
:1009AC0001D000F029F900BF4037BD4680BD0000E2
:1009BC0080B586B000AF07F1080300221A605A60B8
:1009CC009A60DA603B4600221A605A601D4B4FF069
:1009DC0080421A601B4B0F225A601A4B00229A60FD
:1009EC00184B4FF6FE72DA60164B00221A61154B4B
:1009FC0000229A61134801F0E7F90346002B01D05D
:100A0C0000F0FAF84FF48053BB6007F10803194665
:100A1C000C4801F073FA0346002B01D000F0ECF8FF
:100A2C0000233B6000237B603B461946054801F0E0
:100A3C0021FC0346002B01D000F0DEF800BF183774
:100A4C00BD4680BD3000002080B586B000AF07F1F8
:100A5C00080300221A605A609A60DA603B46002252
:100A6C001A605A601D4B1E4A1A601C4B43F67F627B
:100A7C005A601A4B00229A60184B4FF6FE72DA60DD
:100A8C00164B00221A61154B00229A61134801F093
:100A9C009BF90346002B01D000F0AEF84FF48053C5
:100AAC00BB6007F1080319460C4801F027FA03460E
:100ABC00002B01D000F0A0F800233B6000237B60EA
:100ACC003B461946054801F0D5FB0346002B01D0E7
:100ADC0000F092F800BF1837BD4680BD78000020AA
:100AEC000008004080B485B000AF144B9B69134ADA
:100AFC0043F004039361114B9B6903F00403FB6007
:100B0C00FB680E4B9B690D4A43F0080393610B4B3A
:100B1C009B6903F00803BB60BB68084B9B69074AE1
:100B2C0043F010039361054B9B6903F010037B604A
:100B3C007B6800BF1437BD4680BC70470010024074
:100B4C0080B483B000AF0346FB80084B1B680022C7
:100B5C005A6200BF054B1B685A6AFB889A42F9D34C
:100B6C0000BF00BF0C37BD4680BC70473000002072
:100B7C0080B483B000AF0346FB80084B1B68002297
:100B8C005A6200BF054B1B685A6AFB889A42F9D31C
:100B9C0000BF00BF0C37BD4680BC704778000020FA
:100BAC0080B586B000AF124B9B69114A43F010031D
:100BBC0093610F4B9B6903F010037B607B680022F1
:100BCC004FF400510B4800F0FEFC4FF40053BB6097
:100BDC000123FB6000233B6102237B6107F10803C7
:100BEC001946044800F054FB00BF1837BD4680BDC1
:100BFC00001002400010014080B400AF72B600BF7C
:100C0C00FEE7000080B485B000AF154B9B69144A19
:100C1C0043F001039361124B9B6903F00103BB602A
:100C2C00BB680F4BDB690E4A43F08053D3610C4B0E
:100C3C00DB6903F080537B607B680A4B5B68FB606D
:100C4C00FB6823F0E063FB60FB6843F00073FB6020
:100C5C00044AFB68536000BF1437BD4680BC704724
:100C6C00001002400000014080B485B000AF7860F5
:100C7C007B681B68B3F1804F0CD1114BDB69104AB8
:100C8C0043F00103D3610E4BDB6903F00103FB60FE
:100C9C00FB6810E07B681B680A4A93420BD1084B37
:100CAC00DB69074A43F00403D361054BDB6903F0AE
:100CBC000403BB60BB6800BF1437BD4680BC7047E3
:100CCC00001002400008004080B400AFFEE780B482
:100CDC0000AFFEE780B400AFFEE780B400AFFEE7E4
:100CEC0080B400AFFEE780B400AF00BFBD4680BC4F
:100CFC00704780B400AF00BFBD4680BC704780B465
:100D0C0000AF00BFBD4680BC704780B500AF00F09F
:100D1C00BFF900BF80BD80B400AF00BFBD4680BC32
:100D2C00704700000C480D490D4A002302E0D458CE
:100D3C00C4500433C4188C42F9D30A4A0A4C002319
:100D4C0001E013600432A242FBD3FFF7E4FF01F091
:100D5C00EFFAFFF7F7FC7047000000200C000020B2
:100D6C00042400080C000020D4000020FEE7000042
:100D7C0080B586B000AF07F1080300221A605A60F4
:100D8C009A60DA60124B9B69114A43F00803936135
:100D9C000F4B9B6903F008037B607B6800224FF4C8
:100DAC007E710C4800F00FFC4FF47E73BB60012386
:100DBC00FB6000233B6102237B6107F108031946AA
:100DCC00044800F065FA00BF1837BD4680BD00BF6F
:100DDC0000100240000C014080B582B000AF034609
:100DEC000A46FB8013467B717A79FB8819460348C7
:100DFC0000F0E9FB00BF0837BD4680BD000C014088
:100E0C0080B500AF01218020FFF7E6FF3220FFF70D
:100E1C0097FE00218020FFF7DFFF3220FFF790FEC6
:100E2C0000BF80BD80B582B000AF0346FB71FB797B
:100E3C0003F00103002B04D001214020FFF7CCFF6D
:100E4C0003E000214020FFF7C7FFFB795B08DBB212
:100E5C0003F00103002B04D001212020FFF7BCFF7D
:100E6C0003E000212020FFF7B7FFFB799B08DBB2E2
:100E7C0003F00103002B04D001211020FFF7ACFF7D
:100E8C0003E000211020FFF7A7FFFB79DB08DBB2A2
:100E9C0003F00103002B04D001210820FFF79CFF75
:100EAC0003E000210820FFF797FF00BF0837BD467D
:100EBC0080BD80B582B000AF0346FB71FB791B0986
:100ECC00DBB21846FFF7AEFFFFF79AFFFB79184627
:100EDC00FFF7A8FFFFF794FF00BF0837BD4680BDA2
:100EEC0080B500AF0120FFF7E4FF0220FFF740FEC2
:100EFC0000BF80BD80B500AFFFF73AFF0020FFF7C1
:100F0C0091FF1420FFF734FE00214FF40070FFF71F
:100F1C0063FF00214FF48070FFF75EFF0320FFF7A3
:100F2C0081FFFFF76DFF0520FFF722FEFFF768FF3B
:100F3C006420FFF705FEFFF763FF0220FFF772FF47
:100F4C00FFF75EFF2820FFF7B4FF0C20FFF7B1FF7F
:100F5C000620FFF7AEFF0120FFF7ABFF0220FFF7E3
:100F6C00A8FF0220FFF704FE00BF80BD80B584B04F
:100F7C0000AF786039603B68002B04D17B68DBB232
:100F8C00803BFB7303E07B68DBB2403BFB730120CF
:100F9C00FFF7EEFDFB7B1846FFF78BFF3220FFF7C8
:100FAC00CFFD00BF1037BD4680BD80B582B000AF0D
:100FBC000346FB7101214FF40070FFF70DFFFB7925
:100FCC001846FFF776FF00214FF40070FFF704FF7F
:100FDC0000BF0837BD4680BD80B582B000AF7860D9
:100FEC0007E07B681B781846FFF7DFFF7B6801334F
:100FFC007B607B681B78002BF3D100BF00BF0837E8
:10100C00BD4680BD80B500AF084B1B68074A43F056
:10101C0010031360032000F007F90F2000F008F80C
:10102C00FFF7F0FD0023184680BD00BF00200240F2
:10103C0080B582B000AF7860124B1A68124B1B78E7
:10104C0019464FF47A73B3FBF1F3B2FBF3F3184682
:10105C0000F011F90346002B01D001230EE07B6850
:10106C000F2B0AD8002279684FF0FF3000F0E7F818
:10107C00064A7B681360002300E0012318460837FA
:10108C00BD4680BD000000200800002004000020A8
:10109C0080B400AF054B1B781A46054B1B681344F4
:1010AC00034A136000BFBD4680BC70470800002097
:1010BC00D000002080B400AF024B1B681846BD4620
:1010CC0080BC7047D000002080B485B000AF786041
:1010DC007B6803F00703FB600C4BDB68BB60BA68F2
:1010EC004FF6FF031340BB60FB681A02BB68134347
:1010FC0043F0BF6343F40033BB60044ABB68D36066
:10110C0000BF1437BD4680BC704700BF00ED00E047
:10111C0080B400AF044BDB681B0A03F007031846CE
:10112C00BD4680BC704700BF00ED00E080B483B0CA
:10113C0000AF03463960FB7197F90730002B0ADBCF
:10114C003B68DAB20C4997F907301201D2B20B4462
:10115C0083F800230AE03B68DAB20849FB7903F014
:10116C000F03043B1201D2B20B441A7600BF0C37AA
:10117C00BD4680BC704700BF00E100E000ED00E020
:10118C0080B489B000AFF860B9607A60FB6803F096
:10119C000703FB61FB69C3F10703042B28BF04237E
:1011AC00BB61FB690433062B02D9FB69033B00E0EE
:1011BC0000237B614FF0FF32BB6902FA03F3DA4381
:1011CC00BB681A407B699A404FF0FF317B6901FA8A
:1011DC0003F3D9437B680B40134318462437BD46B1
:1011EC0080BC704780B582B000AF78607B68013BF3
:1011FC00B3F1807F01D301230FE00A4A7B68013BE6
:10120C0053600F214FF0FF30FFF790FF054B00228A
:10121C009A60044B07221A60002318460837BD4613
:10122C0080BD00BF10E000E080B582B000AF7860F8
:10123C007868FFF749FF00BF0837BD4680BD80B511
:10124C0086B000AF0346B9607A60FB7300237B6104
:10125C00FFF75EFF78617A68B9687869FFF790FFED
:10126C00024697F90F3011461846FFF75FFF00BF93
:10127C001837BD4680BD80B582B000AF7860786805
:10128C00FFF7B0FF034618460837BD4680BD000087
:10129C0080B48BB000AF7860396000237B62002390
:1012AC003B6269E101227B6A02FA03F3FB613B6852
:1012BC001B68FA691340BB61BA69FB699A4240F03A
:1012CC0058813B685B689A4A93425ED0984A934235
:1012DC0075D8984A934258D0964A93426FD8964AFA
:1012EC00934252D0944A934269D8944A93424CD038
:1012FC00924A934263D8924A934246D0904A934280
:10130C005DD8122B2AD8122B59D801A252F823F0EF
:10131C00971300087113000883130008C513000805
:10132C00CB130008CB130008CB130008CB13000819
:10133C00CB130008CB130008CB130008CB13000809
:10134C00CB130008CB130008CB130008CB130008F9
:10135C00CB130008791300088D130008794A9342C7
:10136C0013D02CE03B68DB683B6229E03B68DB6810
:10137C0004333B6224E03B68DB6808333B621FE0CC
:10138C003B68DB680C333B621AE03B689B68002BC4
:10139C0002D104233B6213E03B689B68012B05D10F
:1013AC0008233B627B68FA691A6109E008233B62F7
:1013BC007B68FA695A6103E000233B6200E000BFDE
:1013CC00BB69FF2B01D87B6801E07B6804337B6130
:1013DC00BB69FF2B02D87B6A9B0002E07B6A083B4F
:1013EC009B003B617B691A680F213B6901FA03F38F
:1013FC00DB431A40396A3B6901FA03F31A437B69F0
:10140C001A603B685B6803F08053002B00F0B180DE
:10141C004D4B9B694C4A43F0010393614A4B9B69CA
:10142C0003F00103BB60BB68484A7B6A9B0802332C
:10143C0052F82330FB607B6A03F003039B000F22FE
:10144C0002FA03F3DB43FA681340FB607B68404A03
:10145C00934213D07B683F4A93420DD07B683E4A3F
:10146C00934207D07B683D4A934201D1032306E0A7
:10147C00042304E0022302E0012300E000237A6A43
:10148C0002F0030292009340FA681343FB602F4969
:10149C007B6A9B080233FA6841F823203B685B683F
:1014AC0003F48033002B06D02D4B1A682C49BB69F2
:1014BC0013430B6006E02A4B1A68BB69DB432849CF
:1014CC0013400B603B685B6803F40033002B06D0C1
:1014DC00234B5A682249BB6913434B6006E0204BEF
:1014EC005A68BB69DB431E4913404B603B685B6821
:1014FC0003F48013002B06D0194B9A681849BB696A
:10150C0013438B6006E0164B9A68BB69DB431449A6
:10151C0013408B603B685B6803F40013002B21D0F5
:10152C000F4BDA680E49BB691343CB6021E000BF57
:10153C0000003210000031100000221000002110B9
:10154C0000001210000011100010024000000140B9
:10155C0000080140000C0140001001400014014043
:10156C00000401400B4BDA68BB69DB4309491340AB
:10157C00CB607B6A01337B623B681A687B6A22FA18
:10158C0003F3002B7FF48EAE00BF00BF2C37BD469B
:10159C0080BC70470004014080B485B000AF786017
:1015AC000B467B807B689A687B881340002B02D0AB
:1015BC000123FB7301E00023FB73FB7B18461437FC
:1015CC00BD4680BC704780B483B000AF78600B46DA
:1015DC007B8013467B707B78002B03D07A887B68EA
:1015EC001A6103E07B881A047B681A6100BF0C3710
:1015FC00BD4680BC7047000080B586B000AF7860F7
:10160C007B68002B01D1012372E27B681B6803F01D
:10161C000103002B00F08780924B5B6803F00C03F6
:10162C00042B0CD08F4B5B6803F00C03082B12D1EE
:10163C008C4B5B6803F48033B3F5803F0BD1894B43
:10164C001B6803F40033002B6CD07B685B68002BA9
:10165C0068D101234CE27B685B68B3F5803F06D10F
:10166C00804B1B687F4A43F4803313602EE07B6809
:10167C005B68002B0CD17B4B1B687A4A23F48033BC
:10168C001360784B1B68774A23F4802313601DE0AA
:10169C007B685B68B3F5A02F0CD1724B1B68714A49
:1016AC0043F4802313606F4B1B686E4A43F4803302
:1016BC0013600BE06B4B1B686A4A23F48033136096
:1016CC00684B1B68674A23F4802313607B685B6854
:1016DC00002B13D0FFF7EEFC386108E0FFF7EAFCB3
:1016EC0002463B69D31A642B01D9032300E25D4BFC
:1016FC001B6803F40033002BF0D014E0FFF7DAFC86
:10170C00386108E0FFF7D6FC02463B69D31A642B1C
:10171C0001D90323ECE1534B1B6803F40033002B7A
:10172C00F0D100E000BF7B681B6803F00203002BC4
:10173C0063D04C4B5B6803F00C03002B0BD0494B74
:10174C005B6803F00C03082B1CD1464B5B6803F45D
:10175C008033002B16D1434B1B6803F00203002B84
:10176C0005D07B681B69012B01D00123C0E13D4BE7
:10177C001B6823F0F8027B685B69DB003949134373
:10178C000B603AE07B681B69002B20D0364B0122A2
:10179C001A60FFF78FFC386108E0FFF78BFC0246FC
:1017AC003B69D31A022B01D90323A1E12D4B1B68F2
:1017BC0003F00203002BF0D02A4B1B6823F0F80235
:1017CC007B685B69DB00274913430B6015E0264BF4
:1017DC0000221A60FFF76EFC386108E0FFF76AFC24
:1017EC0002463B69D31A022B01D9032380E11D4B1E
:1017FC001B6803F00203002BF0D17B681B6803F01D
:10180C000803002B3AD07B689B69002B19D0174B2F
:10181C0001221A60FFF74EFC386108E0FFF74AFC22
:10182C0002463B69D31A022B01D9032360E10D4B0D
:10183C005B6A03F00203002BF0D0012000F0A6FA43
:10184C001CE00A4B00221A60FFF734FC38610FE0F1
:10185C00FFF730FC02463B69D31A022B08D903234D
:10186C0046E100BF001002400000424280044242A8
:10187C00924B5B6A03F00203002BE9D17B681B6877
:10188C0003F00403002B00F0A6800023FB758B4BA8
:10189C00DB6903F08053002B0DD1884BDB69874A41
:1018AC0043F08053D361854BDB6903F08053BB60FD
:1018BC00BB680123FB75824B1B6803F48073002B00
:1018CC0018D17F4B1B687E4A43F480731360FFF77B
:1018DC00F1FB386108E0FFF7EDFB02463B69D31AD8
:1018EC00642B01D9032303E1754B1B6803F480734C
:1018FC00002BF0D07B68DB68012B06D16F4B1B6A89
:10190C006E4A43F0010313622DE07B68DB68002B09
:10191C000CD16A4B1B6A694A23F001031362674BB3
:10192C001B6A664A23F0040313621CE07B68DB68C5
:10193C00052B0CD1614B1B6A604A43F00403136204
:10194C005E4B1B6A5D4A43F0010313620BE05B4B79
:10195C001B6A5A4A23F001031362584B1B6A574AFD
:10196C0023F0040313627B68DB68002B15D0FFF7B0
:10197C00A1FB38610AE0FFF79DFB02463B69D31AD5
:10198C0041F28832934201D90323B1E04B4B1B6ADD
:10199C0003F00203002BEED014E0FFF78BFB386151
:1019AC000AE0FFF787FB02463B69D31A41F2883203
:1019BC00934201D903239BE0404B1B6A03F00203C3
:1019CC00002BEED1FB7D012B05D13C4BDB693B4A57
:1019DC0023F08053D3617B68DB69002B00F0878098
:1019EC00364B5B6803F00C03082B61D07B68DB691A
:1019FC00022B46D1334B00221A60FFF75BFB386198
:101A0C0008E0FFF757FB02463B69D31A022B01D9BA
:101A1C0003236DE0294B1B6803F00073002BF0D1FE
:101A2C007B681B6AB3F5803F08D1244B5B6823F4B9
:101A3C0000327B689B68214913434B601F4B5B68EA
:101A4C0023F474127B68196A7B685B6A0B431B492D
:101A5C0013434B601B4B01221A60FFF72BFB3861C1
:101A6C0008E0FFF727FB02463B69D31A022B01D98A
:101A7C0003233DE0114B1B6803F00073002BF0D0E7
:101A8C0035E0104B00221A60FFF714FB386108E0B8
:101A9C00FFF710FB02463B69D31A022B01D9032333
:101AAC0026E0064B1B6803F00073002BF0D11EE000
:101ABC007B68DB69012B07D1012319E00010024080
:101ACC0000700040600042420B4B5B68FB60FB689F
:101ADC0003F480327B681B6A9A4206D1FB6803F4DC
:101AEC0070127B685B6A9A4201D0012300E00023EC
:101AFC0018461837BD4680BD0010024080B584B032
:101B0C0000AF786039607B68002B01D10123D0E0F5
:101B1C006A4B1B6803F007033A689A4210D9674B6B
:101B2C001B6823F0070265493B6813430B60634B4A
:101B3C001B6803F007033A689A4201D00123B8E00E
:101B4C007B681B6803F00203002B20D07B681B68AA
:101B5C0003F00403002B05D0594B5B68584A43F43F
:101B6C00E06353607B681B6803F00803002B05D00F
:101B7C00534B5B68524A43F460535360504B5B6861
:101B8C0023F0F0027B689B684D4913434B607B68E4
:101B9C001B6803F00103002B40D07B685B68012BB2
:101BAC0007D1474B1B6803F40033002B15D10123DD
:101BBC007FE07B685B68022B07D1414B1B6803F00D
:101BCC000073002B09D1012373E03D4B1B6803F01C
:101BDC000203002B01D101236BE0394B5B6823F02E
:101BEC0003027B685B68364913434B60FFF762FA6C
:101BFC00F8600AE0FFF75EFA0246FB68D31A41F27E
:101C0C008832934201D9032353E02D4B5B6803F0D8
:101C1C000C027B685B689B009A42EBD1274B1B68DC
:101C2C0003F007033A689A4210D2244B1B6823F046
:101C3C00070222493B6813430B60204B1B6803F0DF
:101C4C0007033A689A4201D0012332E07B681B6893
:101C5C0003F00403002B08D0194B5B6823F4E062FB
:101C6C007B68DB68164913434B607B681B6803F089
:101C7C000803002B09D0124B5B6823F460527B687D
:101C8C001B69DB000E4913434B6000F021F8024640
:101C9C000B4B5B681B0903F00F030A49CB5C22FA60
:101CAC0003F3094A1360094B1B681846FFF7C0F988
:101CBC00002318461037BD4680BD00BF00200240EF
:101CCC0000100240EC23000800000020040000205B
:101CDC0090B48AB000AF294B3C1D0FCB84E80F00A9
:101CEC0040F201233B800023FB610023BB610023F6
:101CFC007B6200237B6100233B62214B5B68FB61B1
:101D0C00FB6903F00C03042B02D0082B03D02BE04F
:101D1C001C4B3B622BE0FB699B0C03F00F0328333D
:101D2C003B4413F8243C7B61FB6903F48033002BA8
:101D3C0012D0134B5B685B0C03F0010328333B445C
:101D4C0013F8283CBB617B690E4A03FB02F2BB69AA
:101D5C00B2FBF3F37B6204E07B690B4A02FB03F3F7
:101D6C007B627B6A3B6202E0064B3B6200BF3B6AD4
:101D7C0018462837BD4690BC704700BFDC230008CE
:101D8C000010024000127A0000093D0080B485B0BA
:101D9C0000AF78600A4B1B680A4AA2FB03235B0A5C
:101DAC007A6802FB03F3FB6000BFFB685A1EFA6003
:101DBC00002BF9D100BF00BF1437BD4680BC704763
:101DCC0000000020D34D621080B582B000AF786067
:101DDC007B68002B01D1012341E07B6893F83D30F7
:101DEC00DBB2002B06D17B68002283F83C2078689C
:101DFC00FEF73AFF7B68022283F83D207B681A6865
:101E0C007B6804331946104600F03CF97B680122CC
:101E1C0083F846207B68012283F83E207B680122F0
:101E2C0083F83F207B68012283F840207B680122E5
:101E3C0083F841207B68012283F842207B680122D1
:101E4C0083F843207B68012283F844207B680122BD
:101E5C0083F845207B68012283F83D200023184637
:101E6C000837BD4680BD000080B485B000AF7860F7
:101E7C007B6893F83D30DBB2012B01D0012332E0BB
:101E8C007B68022283F83D207B681B68184A9342CA
:101E9C000ED07B681B68B3F1804F09D07B681B6840
:101EAC00144A934204D07B681B68134A934211D1A5
:101EBC007B681B689B6803F00703FB60FB68062BC1
:101ECC0010D07B681B681A687B681B6842F00102A3
:101EDC001A6007E07B681B681A687B681B6842F015
:101EEC0001021A60002318461437BD4680BC7047A7
:101EFC00002C0140000400400008004080B584B074
:101F0C0000AF786039607B6893F83C30012B01D1CD
:101F1C000223B3E07B68012283F83C207B68022219
:101F2C0083F83D207B681B689B68FB60FB6823F093
:101F3C007703FB60FB6823F47F43FB607B681B68C3
:101F4C00FA689A603B681B68B3F5005F3ED0B3F546
:101F5C00005F00F28780B3F5805F00F08580B3F5F9
:101F6C00805F7FD8702B1AD0702B7BD8602B50D011
:101F7C00602B77D8502B3CD0502B73D8402B58D09B
:101F8C00402B6FD8302B64D0302B6BD8202B60D0EB
:101F9C00202B67D8002B5CD0102B5AD062E07B68CA
:101FAC0018683B6899683B685A683B68DB6800F0C6
:101FBC0042F97B681B689B68FB60FB6843F0770306
:101FCC00FB607B681B68FA689A604EE07B68186857
:101FDC003B6899683B685A683B68DB6800F02BF9F2
:101FEC007B681B689A687B681B6842F480429A6025
:101FFC003BE07B6818683B6859683B68DB681A46AD
:10200C0000F0A2F87B681B685021184600F0F9F824
:10201C002BE07B6818683B6859683B68DB681A469C
:10202C0000F0C0F87B681B686021184600F0E9F8E6
:10203C001BE07B6818683B6859683B68DB681A468C
:10204C0000F082F87B681B684021184600F0D9F834
:10205C000BE07B681A683B681B681946104600F059
:10206C00D0F802E000BF00E000BF7B68012283F8DB
:10207C003D207B68002283F83C2000231846103753
:10208C00BD4680BD80B485B000AF786039607B6898
:10209C001B68FB607B68294A93420BD07B68B3F1C9
:1020AC00804F07D07B68264A934203D07B68254A31
:1020BC00934208D1FB6823F07003FB603B685B68BC
:1020CC00FA681343FB607B681C4A93420BD07B6815
:1020DC00B3F1804F07D07B68194A934203D07B68D9
:1020EC00184A934208D1FB6823F44073FB603B68A9
:1020FC00DB68FA681343FB60FB6823F080023B68E3
:10210C005B691343FB607B68FA681A603B689A68EA
:10211C007B68DA623B681A687B689A627B68074A5C
:10212C00934203D13B681A697B681A637B6801226E
:10213C005A6100BF1437BD4680BC7047002C01406B
:10214C00000400400008004080B487B000AFF86085
:10215C00B9607A60FB681B6A7B61FB681B6A23F0C1
:10216C000102FB681A62FB689B693B613B6923F0C7
:10217C00F0033B617B681B013A6913433B617B694C
:10218C0023F00A037B617A69BB6813437B61FB68AC
:10219C003A699A61FB687A691A6200BF1C37BD46BE
:1021AC0080BC704780B487B000AFF860B9607A60CB
:1021BC00FB681B6A23F01002FB681A62FB689B69C0
:1021CC007B61FB681B6A3B617B6923F470437B6119
:1021DC007B681B037A6913437B613B6923F0A00383
:1021EC003B61BB681B013A6913433B61FB687A692D
:1021FC009A61FB683A691A6200BF1C37BD4680BC05
:10220C00704780B485B000AF786039607B689B689C
:10221C00FB60FB6823F07003FB603A68FB681343B8
:10222C0043F00703FB607B68FA689A6000BF1437C1
:10223C00BD4680BC704780B487B000AFF860B96011
:10224C007A603B60FB689B687B617B6923F47F430E
:10225C007B613B681A027B681A43BB6813437A693B
:10226C0013437B61FB687A699A6000BF1C37BD46DB
:10227C0080BC704780B485B000AF786039607B68F3
:10228C0093F83C30012B01D1022346E07B680122FC
:10229C0083F83C207B68022283F83D207B681B6816
:1022AC005B68FB607B681B689B68BB60FB6823F00A
:1022BC007003FB603B681B68FA681343FB607B6828
:1022CC001B68FA685A607B681B68164A93420ED0EA
:1022DC007B681B68B3F1804F09D07B681B68124A7E
:1022EC00934204D07B681B68104A93420CD1BB68A4
:1022FC0023F08003BB603B685B68BA681343BB6028
:10230C007B681B68BA689A607B68012283F83D2061
:10231C007B68002283F83C20002318461437BD4606
:10232C0080BC7047002C01400004004000080040B5
:10233C0070B500260C4D0D4C641BA410A64209D19F
:10234C0000F022F800260A4D0A4C641BA410A64289
:10235C0005D170BD55F8043B98470136EEE755F8AA
:10236C00043B98470136F2E7FC230008FC230008E5
:10237C00FC2300080024000803460244934200D1C9
:10238C00704703F8011BF9E7F8B500BFF8BC08BCAF
:10239C009E467047F8B500BFF8BC08BC9E46704717
:1023AC0057656C636F6D6500456E74657220726560
:1023BC00736574200000000048554D493A20000018
:1023CC002025000054454D503A200000202A43009F
:1023DC0002030405060708090A0B0C0D0E0F10105A
:1023EC0000000000000000000102030406070809B9
:0423FC0031010008A3
:042400000D010008C2
:0C2404000024F4001000000001000000A3
:0400000508000D31B1
:00000001FF
